{
  "contractName": "ComplexStorage",
  "abi": [
    {
      "anonymous": false,
      "inputs": [
        {
          "indexed": true,
          "internalType": "address",
          "name": "user",
          "type": "address"
        },
        {
          "indexed": false,
          "internalType": "uint256",
          "name": "value",
          "type": "uint256"
        },
        {
          "indexed": false,
          "internalType": "uint256",
          "name": "timestamp",
          "type": "uint256"
        }
      ],
      "name": "DataStored",
      "type": "event"
    },
    {
      "inputs": [
        {
          "internalType": "address",
          "name": "",
          "type": "address"
        },
        {
          "internalType": "uint256",
          "name": "",
          "type": "uint256"
        }
      ],
      "name": "userStorage",
      "outputs": [
        {
          "internalType": "uint256",
          "name": "value",
          "type": "uint256"
        },
        {
          "internalType": "uint256",
          "name": "timestamp",
          "type": "uint256"
        }
      ],
      "stateMutability": "view",
      "type": "function",
      "constant": true
    },
    {
      "inputs": [
        {
          "internalType": "uint256",
          "name": "_value",
          "type": "uint256"
        }
      ],
      "name": "set",
      "outputs": [],
      "stateMutability": "nonpayable",
      "type": "function"
    },
    {
      "inputs": [],
      "name": "getLatest",
      "outputs": [
        {
          "internalType": "uint256",
          "name": "",
          "type": "uint256"
        },
        {
          "internalType": "uint256",
          "name": "",
          "type": "uint256"
        }
      ],
      "stateMutability": "view",
      "type": "function",
      "constant": true
    },
    {
      "inputs": [],
      "name": "getAll",
      "outputs": [
        {
          "components": [
            {
              "internalType": "uint256",
              "name": "value",
              "type": "uint256"
            },
            {
              "internalType": "uint256",
              "name": "timestamp",
              "type": "uint256"
            }
          ],
          "internalType": "struct ComplexStorage.Data[]",
          "name": "",
          "type": "tuple[]"
        }
      ],
      "stateMutability": "view",
      "type": "function",
      "constant": true
    }
  ],
  "bytecode": "0x608060405234801561001057600080fd5b50610788806100206000396000f3fe608060405234801561001057600080fd5b506004361061004c5760003560e01c8063314f9cda1461005157806353ed51431461008257806360fe47b1146100a0578063c36af460146100bc575b600080fd5b61006b60048036038101906100669190610468565b6100db565b604051610079929190610612565b60405180910390f35b61008a61011c565b60405161009791906105d0565b60405180910390f35b6100ba60048036038101906100b591906104a4565b6101cb565b005b6100c46102b0565b6040516100d2929190610612565b60405180910390f35b600060205281600052604060002081815481106100f757600080fd5b9060005260206000209060020201600091509150508060000154908060010154905082565b60606000803373ffffffffffffffffffffffffffffffffffffffff1673ffffffffffffffffffffffffffffffffffffffff168152602001908152602001600020805480602002602001604051908101604052809291908181526020016000905b828210156101c25783829060005260206000209060020201604051806040016040529081600082015481526020016001820154815250508152602001906001019061017c565b50505050905090565b6000803373ffffffffffffffffffffffffffffffffffffffff1673ffffffffffffffffffffffffffffffffffffffff1681526020019081526020016000206040518060400160405280838152602001428152509080600181540180825580915050600190039060005260206000209060020201600090919091909150600082015181600001556020820151816001015550503373ffffffffffffffffffffffffffffffffffffffff167f196d776bd3df5dc8f3c877beec22a7b888b8ca883038df0da6b0f3fc9de3816d82426040516102a5929190610612565b60405180910390a250565b60008060008060003373ffffffffffffffffffffffffffffffffffffffff1673ffffffffffffffffffffffffffffffffffffffff1681526020019081526020016000208054905011610337576040517f08c379a000000000000000000000000000000000000000000000000000000000815260040161032e906105f2565b60405180910390fd5b60008060003373ffffffffffffffffffffffffffffffffffffffff1673ffffffffffffffffffffffffffffffffffffffff16815260200190815260200160002060016000803373ffffffffffffffffffffffffffffffffffffffff1673ffffffffffffffffffffffffffffffffffffffff168152602001908152602001600020805490506103c59190610685565b815481106103fc577f4e487b7100000000000000000000000000000000000000000000000000000000600052603260045260246000fd5b90600052602060002090600202016040518060400160405290816000820154815260200160018201548152505090508060000151816020015192509250509091565b60008135905061044d81610724565b92915050565b6000813590506104628161073b565b92915050565b6000806040838503121561047b57600080fd5b60006104898582860161043e565b925050602061049a85828601610453565b9150509250929050565b6000602082840312156104b657600080fd5b60006104c484828501610453565b91505092915050565b60006104d98383610583565b60408301905092915050565b60006104f08261064b565b6104fa8185610663565b93506105058361063b565b8060005b8381101561053657815161051d88826104cd565b975061052883610656565b925050600181019050610509565b5085935050505092915050565b6000610550601283610674565b91507f4e6f20646174612073746f7265642079657400000000000000000000000000006000830152602082019050919050565b60408201600082015161059960008501826105b2565b5060208201516105ac60208501826105b2565b50505050565b6105bb816106eb565b82525050565b6105ca816106eb565b82525050565b600060208201905081810360008301526105ea81846104e5565b905092915050565b6000602082019050818103600083015261060b81610543565b9050919050565b600060408201905061062760008301856105c1565b61063460208301846105c1565b9392505050565b6000819050602082019050919050565b600081519050919050565b6000602082019050919050565b600082825260208201905092915050565b600082825260208201905092915050565b6000610690826106eb565b915061069b836106eb565b9250828210156106ae576106ad6106f5565b5b828203905092915050565b60006106c4826106cb565b9050919050565b600073ffffffffffffffffffffffffffffffffffffffff82169050919050565b6000819050919050565b7f4e487b7100000000000000000000000000000000000000000000000000000000600052601160045260246000fd5b61072d816106b9565b811461073857600080fd5b50565b610744816106eb565b811461074f57600080fd5b5056fea26469706673582212206f2b524da53578e7f3e9a6f9136fbe1fc8d8207c19d40be4b6d3b362d5ff5b8764736f6c63430008000033",
  "immutableReferences": {},
  "source": "// contracts/ComplexStorage.sol\r\n// SPDX-License-Identifier: MIT\r\npragma solidity ^0.8.0;\r\n\r\ncontract ComplexStorage {\r\n    // Struct untuk menyimpan data dengan timestamp\r\n    struct Data {\r\n        uint256 value;\r\n        uint256 timestamp;\r\n    }\r\n    \r\n    // Mapping untuk menyimpan data berdasarkan alamat pengguna\r\n    mapping(address => Data[]) public userStorage;\r\n    \r\n    // Event ketika data diubah\r\n    event DataStored(address indexed user, uint256 value, uint256 timestamp);\r\n\r\n    // Fungsi untuk menyimpan data baru\r\n    function set(uint256 _value) public {\r\n        userStorage[msg.sender].push(Data({\r\n            value: _value,\r\n            timestamp: block.timestamp\r\n        }));\r\n        \r\n        emit DataStored(msg.sender, _value, block.timestamp);\r\n    }\r\n\r\n    // Fungsi untuk mendapatkan data terakhir dari pengguna\r\n    function getLatest() public view returns (uint256, uint256) {\r\n        require(userStorage[msg.sender].length > 0, \"No data stored yet\");\r\n        Data memory latestData = userStorage[msg.sender][userStorage[msg.sender].length - 1];\r\n        return (latestData.value, latestData.timestamp);\r\n    }\r\n\r\n    // Fungsi untuk mendapatkan semua data yang pernah disimpan oleh pengguna\r\n    function getAll() public view returns (Data[] memory) {\r\n        return userStorage[msg.sender];\r\n    }\r\n}\r\n",
  "sourcePath": "C:\\Users\\luthf\\Documents\\Me\\blockchain\\dapp-test\\contracts\\ComplexStorage.sol",
  "compiler": {
    "name": "solc",
    "version": "0.8.0+commit.c7dfd78e.Emscripten.clang"
  },
  "schemaVersion": "3.4.16",
  "updatedAt": "2024-09-14T00:33:24.578Z",
  "networkType": "ethereum",
  "devdoc": {
    "kind": "dev",
    "methods": {},
    "version": 1
  },
  "userdoc": {
    "kind": "user",
    "methods": {},
    "version": 1
  }
}